:020000040800F2
:10000000FFFF0020752B0008BD2B0008BD2B00084A
:10001000BD2B0008BD2B0008BD2B00080000000010
:10002000000000000000000000000000BD160008F5
:10003000BD2B000800000000191700086517000814
:10004000BD2B0008BD2B0008BD2B0008BD2B0008F0
:10005000BD2B0008BD2B0008BD2B0008BD2B0008E0
:10006000BD2B0008BD2B0008BD2B0008BD2B0008D0
:10007000BD2B0008BD2B0008BD2B0008BD2B0008C0
:10008000BD2B0008BD2B0008BD2B0008BD2B0008B0
:10009000BD2B0008BD2B0008BD2B0008BD2B0008A0
:1000A000BD2B0008BD2B0008BD2B0008BD2B000890
:1000B000BD2B0008BD2B0008BD2B0008BD2B000880
:1000C000BD2B0008BD2B0008BD2B0008BD2B000870
:1000D000BD2B0008BD2B0008BD2B0008BD2B000860
:1000E000BD2B0008BD2B0008BD2B0008BD2B000850
:1000F000BD2B0008BD2B0008BD2B0008BD2B000840
:10010000BD2B0008BD2B0008BD2B0008BD2B00082F
:10011000BD2B0008BD2B0008BD2B0008BD2B00081F
:10012000BD2B0008BD2B0008BD2B0008BD2B00080F
:1001300000000000000000000000000000000000BF
:1001400000000000000000000000000000000000AF
:10015000000000000000000000000000000000009F
:10016000000000000000000000000000000000008F
:10017000000000000000000000000000000000007F
:10018000000000000000000000000000000000006F
:10019000000000000000000000000000000000005F
:1001A000000000000000000000000000000000004F
:1001B000000000000000000000000000000000003F
:1001C000000000000000000000000000000000002F
:1001D000000000000000000000000000000000001F
:0401E0005FF8E0F1F3
:1001F00010B5054C237833B9044B13B10448AFF361
:1002000000800123237010BD5C040020000000006A
:10021000342C000808B5034B1BB103490348AFF366
:10022000008008BD0000000060040020342C00089D
:1002300008B5264B984209D10121042000F06CFA40
:1002400000210420BDE8084000F066BA204B984227
:1002500006D10121082000F05FFA00210820F1E713
:100260001C4B984206D10121102000F055FA0021C4
:100270001020E7E7184B984206D10121202000F01A
:100280004BFA00212020DDE7144B984206D10121D2
:10029000402000F041FA00214020D3E7104B984263
:1002A00006D10121802000F037FA00218020C9E723
:1002B0000C4B984208D101214FF4807000F02CFAC9
:1002C00000214FF48070BDE708BD00BF0008014069
:1002D000000C0140001001400014014000180140D2
:1002E000001C014000200140012108B5084600F033
:1002F00013FABDE808400021012000F00DBACA78C9
:100300002DE9F041D30648BF8B780E8802F00F0527
:1003100048BF1D4316F0FF0F1AD000214FF0010C0B
:100320004FF00F0E03680CFA01F737EA06040BD101
:100330008C000EFA04F823EA080305FA04F4282ACC
:1003400043EA040326D1476101310829EBD1036058
:10035000FF2E1DD908244FF0010C4FF00F0E4168FD
:100360000CFA04F737EA06030ED104F18043083B88
:100370009B000EFA03F821EA080105FA03F3282A84
:1003800041EA03010AD147610134102CE8D14160F0
:10039000BDE8F081482A08BF0761D5E7482A08BFB1
:1003A0000761F1E74FF6FF73038002238370042394
:1003B000C37070478368194214BF01200020704742
:1003C000806880B27047C368194214BF01200020C2
:1003D0007047C06880B270470161704741617047E3
:1003E0000AB10161704741617047C160704741F4D3
:1003F0008033836181618361836983697047054AC2
:10040000136823F07F031B041B0C194341EA0011FE
:100410001160704700000140014B1860704700BF39
:100420001C0020420028164A30B500F44015B4BF25
:10043000D3695368B5F5401F84B210D1556823F0D5
:10044000706325F07065556019B1420D120194403A
:1004500023430B4A0028B4BFD361536030BDC202AE
:100460004DBF0322420D1201C0F303454CBFAA4009
:1004700004FA02F223EA020343F07063E4E700BFE8
:100480000000014010B50F2401F0030301F0FC014E
:1004900001F1804101F580318A689B009C4022EA8D
:1004A00004028A608A6898401043886010BD014B3E
:1004B00018607047DC0020420D4B1A6842F00102C0
:1004C0001A6059680B4A0A405A601A6822F084720E
:1004D00022F480321A601A6822F480221A605A6864
:1004E00022F4FE025A604FF41F029A60704700BF68
:1004F000001002400000FFF80C4BB0F5803F1A6876
:1005000022F480321A601A6822F480221A6003D022
:10051000B0F5802F05D070471A6842F480321A6017
:1005200070471A6842F4A022F9E700BF00100240A9
:10053000034A136823F0F80343EAC00010607047D1
:1005400000100240014B1860704700BF000042429B
:10055000034A536823F47C131943014351607047E5
:1005600000100240014B1860704700BF600042421B
:10057000034A536823F0030318435060704700BFD9
:1005800000100240024B586800F00C00704700BF9A
:1005900000100240034A536823F0F00318435060F0
:1005A000704700BF00100240034A536823F4E06321
:1005B00018435060704700BF00100240034A536860
:1005C00023F4605343EAC0005060704700100240BB
:1005D000044B1A7811B110431870704722EA0000DA
:1005E000FAE700BF09100240014B1860704700BFD6
:1005F000D8004242034A536823F4404318435060F2
:10060000704700BF001002400022064B01281A70FC
:100610001A7002D0042802D0704718707047052263
:100620001A70704720100240014B1860704700BFDD
:1006300080044242024A136A18431062704700BFA6
:1006400000100240014B1860704700BF3C0442425A
:100650001B4A10B5536803F00C03082B1FD0194B2D
:10066000036053681849C3F30313CC5C0368E34089
:1006700043605468C4F302240C5D23FA04F48460DC
:100680005468C4F3C2240C5DE340C3605268C2F3F3
:10069000813211440A7CB3FBF2F3036110BD53684D
:1006A0005168C3F38343CC0303F1020302D4074927
:1006B0004B43D5E751688903F9D40249F8E700BFF5
:1006C0000010024000127A000000002000093D00E6
:1006D000044B5A6911B110435861704722EA000077
:1006E000FAE700BF00100240044B9A6911B11043B1
:1006F0009861704722EA0000FAE700BF001002404C
:10070000044BDA6911B11043D861704722EA000046
:10071000FAE700BF00100240044BDA6811B1104341
:10072000D860704722EA0000FAE700BF00100240DC
:10073000044B1A6911B110431861704722EA000096
:10074000FAE700BF00100240014B1860704700BF7D
:1007500040044242014B1860704700BF4C004242C7
:10076000014B1870704700BF071002404209012A70
:10077000074B07D11B6800F01F0023FA00F000F0C0
:1007800001007047022A0CBF1B6A5B6AF3E700BFD7
:1007900000100240002307B501933120FFF7E6FF68
:1007A000019B01330193019BB3F5A06F01D0002899
:1007B000F3D03120FFF7DAFF003018BF012003B07B
:1007C0005DF804FB024A536A43F08073536270473A
:1007D00000100240034B9B68184214BF0120002008
:1007E000704700BF00100240014B1870704700BFF7
:1007F0000A10024030B5048C42EA031324F00104CD
:100800002404240C0484048B058C24F0F3042404B5
:10081000240C1C43114BADB29842A4B241F001012B
:1008200012D003F5006398420ED0B0F1804F0BD088
:10083000A3F59833984207D003F58063984203D01C
:1008400003F58063984205D125F00205294304830E
:10085000018430BD25F00A05F8E700BF002C0140F7
:1008600070B5058C120225F010052D042D0C0584A1
:10087000058B42EA033325F440752D052D0D1D43EC
:10088000144B048C0E019842A4B2B6B2ADB212D091
:1008900003F5006398420ED0B0F1804F0BD0A3F562
:1008A0009833984207D003F58063984203D003F54C
:1008B0008063984207D124F0200446F010063443A8
:1008C0000583048470BD24F0A00441F010010C43A2
:1008D000F6E700BF002C014008B5614B98420BD1F0
:1008E00001214FF40060FFF717FF00214FF4006073
:1008F000BDE80840FFF710BFB0F1804F09D10121DA
:100900000846FFF715FF00210120BDE80840FFF76A
:100910000FBF544B984206D101210220FFF708FF78
:1009200000210220F1E7504B984206D1012104201A
:10093000FFF7FEFE00210420E7E74C4B984206D16A
:1009400001210820FFF7F4FE00210820DDE7484BD5
:10095000984206D101211020FFF7EAFE0021102065
:10096000D3E7444B984206D101212020FFF7E0FE57
:1009700000212020C9E7404B984208D101214FF4C3
:100980000050FFF7C9FE00214FF40050B0E73B4B89
:10099000984208D101214FF40020FFF7BDFE00214D
:1009A0004FF40020A4E7364B984208D101214FF4C0
:1009B0008010FFF7B1FE00214FF4801098E7314B13
:1009C000984208D101214FF40010FFF7A5FE002145
:1009D0004FF400108CE72C4B984206D101214020A7
:1009E000FFF7A6FE002140208FE7284B984206D152
:1009F00001218020FFF79CFE0021802085E7244B09
:100A0000984208D101214FF48070FFF791FE002138
:100A10004FF4807079E71F4B984208D101214FF4C1
:100A20008030FFF779FE00214FF4803060E71A4BE9
:100A3000984208D101214FF40030FFF76DFE0021EC
:100A40004FF4003054E7154B984208D101214FF480
:100A50008020FFF761FE00214FF4802048E708BDA9
:100A6000002C01400004004000080040000C004041
:100A7000001000400014004000340140004C0140D0
:100A8000005001400054014000180040001C00408C
:100A90000020004000400140004401400048014067
:100AA000224A038890429BB212D002F50062904223
:100AB0000ED0B0F1804F0BD0A2F59832904207D003
:100AC00002F58062904203D002F58062904203D129
:100AD0004A8823F070031343154A904208D002F568
:100AE000806290421FBF23F44073CA889BB21343B5
:100AF00003808B8883850B8803850C4B98420FD02D
:100B000003F5006398420BD003F54063984207D089
:100B100003F58063984203D003F58063984201D1C6
:100B20000B7A038601238382704700BF002C0140AB
:100B300000100040038C70B523F001031B041B0C54
:100B40000384038C8488028B0D8822F073021204C4
:100B5000120C2A4323F002030D894E881B043543EF
:100B60001B0C2B43134DA4B2A8420FD005F5006512
:100B7000A8420BD005F54065A84207D005F5806571
:100B8000A84203D005F58065A8420DD14D8923F018
:100B900008032B438D8823F004032B43CE898D89D2
:100BA00024F4407435432C4384800283CA888286AF
:100BB000038470BD002C0140038C70B523F010033A
:100BC0001B041B0C0384038C8488028B0D8822F485
:100BD000E6421204120C42EA052223F020030D899A
:100BE0004E881B0435431B0C43EA0513114DA4B278
:100BF000A84292B29BB203D005F50065A84213D17A
:100C00004D8923F0800343EA05134FF6BF751D405D
:100C10008B88CE8945EA03138D8924F440643543DB
:100C200044EA85049BB2A4B284800283CA88028706
:100C3000038470BD002C0140038C70B523F48073D5
:100C40001B041B0C0384038C8288848B0D8824F086
:100C500073042404240C2C4323F400730D894E8860
:100C60001B0435431B0C43EA0523114D92B2A842E5
:100C70009BB203D005F50065A84213D14D8923F43A
:100C8000006343EA05234FF6FF351D408B88CE896C
:100C900045EA03238D8922F44052354342EA051286
:100CA0009BB292B28280CA8884838287038470BD9B
:100CB000002C0140038C70B523F480531B041B0CE3
:100CC0000384038C8488828B0D8822F4E64212040C
:100CD000120C42EA052223F400530D894E881B04AE
:100CE00035431B0C43EA05330B4DA4B2A84292B224
:100CF0009BB203D005F50065A84205D18D8924F487
:100D0000804444EA8514A4B284808283CA88A0F80F
:100D10004020038470BD00BF002C01404A880B882E
:100D200013438A881343CA8813430A8913434A89A1
:100D300013438A891343A0F8443070474FF6FF737A
:100D4000838000230380C3804380037270470023A5
:100D5000038043808380C380038143818381C38177
:100D6000704700230122038043808280C380038177
:100D700070470023038043808380C38003814381C5
:100D800083817047038819B143F0010303807047E2
:100D900023F001031B041B0CF8E7B0F8443021B129
:100DA00043F40043A0F844307047C3F30E03F9E75F
:100DB000838912B119438181704723EA0101FAE75F
:100DC000818270470A43A0F848207047FFF7F0BFC0
:100DD000038923F007031B041B0C0381704703895D
:100DE00023F070031B041B0C19430181038943F09A
:100DF00007030381704738B50D46602D1146044640
:100E00004FF001020DD1FFF72BFD218921F0700178
:100E10000904090C29432181238943F00703238115
:100E200038BDFFF7E7FCF0E710B504890A43E4B2E8
:100E300042EA03231C43A4B2048110BD10B5FFF79E
:100E4000F3FF038923F077031B041B0C43F07703A4
:100E5000038110BD10B5FFF7E7FF038943F480431A
:100E6000038110BD018582827047038823F07003DF
:100E70001B041B0C194301807047038923F0700386
:100E80001B041B0C19430181704770B50589068B43
:100E900025F00705048C2D042D0C24F02204294391
:100EA000240426F4407525F00305240C42EA0313BC
:100EB00045F480751C4345F00105A4B2018105830A
:100EC000048470BD038B23F070031B041B0C1943B7
:100ED00001837047038B23F4E0431B041B0C43EA9C
:100EE000012189B201837047838B23F070031B04B7
:100EF0001B0C194381837047838B23F4E0431B044D
:100F00001B0C43EA012189B281837047038819B120
:100F100043F080030380704723F080031B041B0C05
:100F2000F8E7838819B143F004038380704723F006
:100F300004031B041B0CF8E7838819B143F0080372
:100F40008380704723F008031B041B0CF8E7838899
:100F500019B143F001038380704723F001031B04A0
:100F60001B0CF8E7038B23F008031B041B0C19432D
:100F700001837047038B23F400631B041B0C43EABB
:100F8000012189B201837047838B23F008031B047E
:100F90001B0C194381837047838B23F400631B046C
:100FA0001B0C43EA012189B281837047038B23F034
:100FB00004031B041B0C194301837047038B23F4A8
:100FC00080631B041B0C43EA012189B20183704733
:100FD000838B23F004031B041B0C1943818370478C
:100FE000838B23F480631B041B0C43EA012189B229
:100FF00081837047038B23F080031B041B0C194370
:1010000001837047038BC3F30E0343EA012189B2C6
:1010100001837047838B23F080031B041B0C19434F
:1010200081837047838BC3F30E0343EA012189B2A6
:1010300081837047038C23F002031B041B0C1943AC
:1010400001847047038C23F008031B041B0C194315
:1010500001847047038C23F020031B041B0C43EA1C
:10106000011189B201847047038C23F080031B04B3
:101070001B0C43EA011189B201847047038C23F4ED
:1010800000731B041B0C43EA012189B201847047E1
:10109000038C23F400631B041B0C43EA012189B277
:1010A00001847047038C23F400531B041B0C43EA98
:1010B000013189B20184704710B50124038C8C4042
:1010C00023EA04030384038C02FA01F1194389B271
:1010D000018410BD10B50424038C8C4023EA040362
:1010E0000384038C02FA01F1194389B2018410BD13
:1010F00030B50125048C8D4024EA050400F1180365
:10110000048421F0080040B94908C85820F0700054
:10111000C850C8580243CA5030BD0439C1F34E010B
:10112000C858120220F4E040C850C85892B2F1E703
:10113000038819B143F002030380704723F00203D0
:101140001B041B0CF8E7038819B143F00403038068
:10115000704723F004031B041B0CF8E7838819B1C4
:1011600043F080038380704723F080031B041B0C33
:10117000F8E7038823F008031B041B0C0380038893
:10118000194301807047838823F070031B041B0CF4
:1011900083808388194381807047038923F0070384
:1011A0001B041B0C038103891943018170470389C8
:1011B00023F080031B041B0C038103891943018165
:1011C00070478184704781857047818670470187A9
:1011D000704781877047A0F840107047038B23F059
:1011E0000C031B041B0C0383038B194301837047FF
:1011F000038B23F440631B041B0C0383038B43EA20
:10120000012189B201837047F8B50C464988A2884C
:101210000029B4F800C014BF00260226012A14BF1A
:10122000012702272389BCF1000F0ED1FFF7E2FA54
:10123000E188FFF7D3FF314623893A46FFF710FBD9
:10124000E188BDE8F840FFF7D3BFFFF709FBE1886D
:10125000FFF7CEFF314623893A46FFF7CBFAE18804
:10126000BDE8F840FFF7BABF838B23F00C031B04E3
:101270001B0C8383838B194381837047838B23F4F7
:1012800040631B041B0C8383838B43EA012189B2D7
:1012900081837047F8B50E46098804467588B28880
:1012A000338939B92946FFF7A5FAF188BDE8F84036
:1012B000FFF794BF042907D12946FFF7D1FAF18837
:1012C000BDE8F840FFF794BF0829008CF18838D1B9
:1012D00020F480700004000C2084A68B208CB6B211
:1012E00026F0F306324342EA0313344A2F029442B3
:1012F00080B2BFB29BB212D002F5006294420ED00F
:10130000B4F1804F0BD0A2F59832944207D002F589
:101310008062944203D002F5806294420BD120F4A3
:10132000007545F480753D43A38320462584BDE8C0
:10133000F840FFF799BF20F42060054345F480751D
:10134000F2E720F480500004000C2084A08B1B03E3
:1013500020F4407043EA02230005184A278C000D50
:101360002E0303439442BFB2B6B29BB212D002F531
:10137000006294420ED0B4F1804F0BD0A2F59832A7
:10138000944207D002F58062944203D002F5806255
:1013900094420BD127F4005545F480553543A3837F
:1013A00020462584BDE8F840FFF768BF27F40077A2
:1013B0007F047F0C3D4345F48055F0E7002C01404D
:1013C000038823F440731B041B0C03800388194318
:1013D00001807047808E7047008F7047808F704704
:1013E000B0F840007047808C7047008D7047038ACA
:1013F000194214BF012000207047C94389B20182FD
:101400007047038A828911EA030092B203D00A422C
:1014100014BF012000207047C94389B20182704780
:10142000374B82B01A6842F001021A605968354A97
:101430000A405A601A6822F0847222F480321A60DC
:101440001A6822F480221A605A6822F4FE025A6056
:101450004FF41F029A600022009201921A6842F42F
:1014600080321A601A6802F400320192009A013246
:101470000092019A1AB9009AB2F5A06FF2D11A68D7
:1014800012F4003218BF01220192019A012A30D1D0
:101490001D4A116841F010011160116821F003012B
:1014A0001160116841F0020111605A685A605A686F
:1014B0005A605A6842F480625A605A6822F47C1278
:1014C0005A605A6842F4E8125A601A6842F0807210
:1014D0001A601A689201FCD55A6822F003025A6019
:1014E0005A6842F002025A605A6802F00C02082A56
:1014F000FAD14FF00062054B9A6002B0704700BF0E
:10150000001002400000FFF80020024000ED00E063
:10151000104A536803F00C03082B0F4B0AD00F49F5
:1015200019605268C2F303121A4411791A68CA404A
:101530001A60704751685068C1F38341C00301F1DC
:10154000020102D406484143EAE750688003F9D417
:101550000248F8E7001002401400002000127A0050
:1015600000093D0038B5044643071CBF20F00704BE
:10157000083400F037FC0C4B1A681AB90B4A22F0F9
:1015800007021A604BF6F7715A6814448C4208D867
:10159000A24206D21D685C60154400F0ADFC2846EE
:1015A00038BD0025F9E700BF78040020880400203A
:1015B00070470022014B5A60704700BF780400203A
:1015C000024B5868C0F53F40F8307047780400205F
:1015D0004FF0FF3200F108034360C0E902230361CA
:1015E00000230360704700230361704743689A68D3
:1015F0004B608A609A6851609960036808610133A2
:10160000036070470A6830B5531C0AD103695A68F1
:101610004A6091608B605960036808610133036020
:1016200030BD00F108035C6825689542EFD8234679
:10163000F9E70369D0E901128A608268516059684C
:10164000814208BF5A60002202611A68013A1A609A
:101650001868704700000000000000000000000053
:10166000002382B001934FF0BF0383F31188BFF3CF
:101670006F8FBFF34F8F019B002BFCD002B07047E0
:101680005B480068006880F3088862B661B6BFF303
:101690004F8FBFF36F8F00DF00BF4FF0807340F8B4
:1016A000043C054B21F0010140F8081C40F80C3CBB
:1016B00040F8202C4038704761160008084B196824
:1016C0000868B0E8F00F80F30988BFF36F8F4FF020
:1016D000000080F311884EF00D0E7047AFF30080CC
:1016E0008CC4002070474FF0BF0383F31188BFF311
:1016F0006F8FBFF34F8F024A136801331360704737
:1017000028000020034A1368013B13600BB983F3E0
:101710001188704728000020EFF30980BFF36F8F16
:101720000F4B1A6820E9F00F10602DE908404FF0C8
:10173000BF0080F3118800F07DFC4FF0000080F3C3
:101740001188BDE8084019680868B0E8F00F80F318
:101750000988BFF36F8F7047AFF30080AFF300804D
:101760008CC4002008B54FF0BF0383F31188BFF38A
:101770006F8FBFF34F8F00F059FB18B14FF08052BD
:10178000024B1A60002383F3118808BD04ED00E0CA
:101790000022054B05491A600A60054A0549116097
:1017A00007221A60704700BF10E000E018E000E078
:1017B00014E000E03F19010010B500240A4B1A683C
:1017C00042F47F021A601A6842F07F421A60FFF703
:1017D000DFFF064B1C60FFF753FF00F02BFCFFF709
:1017E0003FFF204610BD00BF20ED00E02800002094
:1017F00008ED00E0064B1A6812681AB94FF0FF3284
:101800005A6070471A68D268D2685268F8E700BF19
:1018100080C40020F8B5184C0646A568E0680F465D
:101820000430FFF706FF38B9E2682369D16A012264
:101830008A4023EA02032361731C07D137B1E168B0
:101840000E480431BDE8F840FFF7D0BEE368AD199B
:101850005D6006D3A06AE168BDE8F8400431FFF797
:10186000D1BE2068E1680431FFF7CCFE6368AB426B
:1018700088BF6560F8BD00BF80C4002094C400200C
:1018800080B54FF08057114C114E636C43B9A36C77
:10189000012BFAD93760BFF34F8FBFF36F8FF4E797
:1018A000FFF721FFA36BDD68281DFFF7C2FE236C45
:1018B000013B2364636C013B6364FFF723FF286BE8
:1018C000FFF776FE2846FFF773FEDEE780C40020B0
:1018D00004ED00E02DE9F84F9400804620460F46C5
:1018E00099460B9EFFF73EFE8246002800F0A98035
:1018F0005C20FFF737FE0546002800F09F80C0F807
:1019000030A022465046A52101F05CF82B6B043C28
:101910001C4424F0070A7B1E05F134020F3713F82C
:10192000011F02F8011B197809B1BB42F7D10A9CCB
:101930004FF0000B042C28BF04242F1DEC62C5E9D6
:10194000134B384685F843B0FFF74DFEC4F105044C
:1019500005F11800FFF747FEC5F854B02D61AC61E2
:101960006D6285F858B04A4641465046FFF795FEED
:10197000286006B135603A4CFFF7B5FE236C04F1E0
:10198000480801332364E368002B5DD1E560236CD4
:10199000012B2BD14046FFF71BFE04F15C00FFF743
:1019A00017FE04F17000FFF713FE04F18400FFF747
:1019B0000FFE04F1AC0904F19800FFF709FE04F1F1
:1019C000C0064846FFF704FE3046FFF701FE04F16B
:1019D000D400FFF7FDFD04F12C00FFF7F9FD04F141
:1019E0001400FFF7F5FDC4F80090A662012614204C
:1019F000D4F8EC30EA6A21690133C4F8EC306B6446
:101A000006FA02F30B4300FB028039462361FFF71D
:101A1000EDFDFFF777FED4F8E83063B1E368DA6AEA
:101A2000EB6A9A4207D24FF080520E4B1A60BFF316
:101A30004F8FBFF36F8F3046BDE8F88F5046FFF7EA
:101A4000B7FD4FF0FF36F6E7D4F8E830002BCDD1E4
:101A5000E368EA6ADB6A9A4228BFE560C6E700BF2E
:101A600080C4002004ED00E070B50546234CFFF76C
:101A70003AFE05B9E5682E1D3046FFF7DAFD58B984
:101A80001421E86A01FB00418B6C2BB90122236908
:101A9000824023EA02032361AB6A1BB105F11800FF
:101AA000FFF7C7FDD4F8EC300133C4F8EC30E3683D
:101AB000AB4217D131461248FFF798FD636C0133F2
:101AC0006364FFF71FFED4F8E83053B1E368AB421C
:101AD00007D14FF080520B4B1A60BFF34F8FBFF30B
:101AE0006F8F70BD236C286B013B2364FFF760FD93
:101AF0002846FFF75DFDFFF77DFEE2E780C400208A
:101B0000ACC4002004ED00E02DE9F041164C06467F
:101B1000E368834221D0FFF7E6FDD4F800807569C1
:101B2000A76AFFF7EFFD454519D0BD4217D004F174
:101B300014039D4209D1B36A8BB996F85830012B32
:101B40000CBF02200320BDE8F0812C34A54208D050
:101B5000002D0CBF04200120F5E70020F3E7022050
:101B6000F1E70420EFE700BF80C4002010B5044671
:101B7000FFF7B9FD0CB9034BDC68E46AFFF7C2FD5F
:101B8000204610BD80C40020EFF311834FF0BF0248
:101B900082F31188BFF36F8FBFF34F8F08B9034AE9
:101BA000D068C06A83F31188704700BF80C40020EA
:101BB00004292DE9F84328BF042104460F46FFF706
:101BC00092FD0CB9284BDC68E36CBB4240D0264E3A
:101BD00042D2F268A24244D0F268D56ABD428CBFBC
:101BE00000250125D4F82C90E7644B45A36908BF74
:101BF000E762002B4FF01403A4BFC7F10507A761EC
:101C00001A4F626903FB09739A4218D104F1040860
:101C10004046FFF70EFD30B90122336902FA09F29E
:101C200023EA0203336101231420E26A31699340FD
:101C30000B4300FB027041463361FFF7D7FC3DB117
:101C40004FF080520A4B1A60BFF34F8FBFF36F8F74
:101C5000BDE8F843FFF756BDF5682A1B55425541CC
:101C6000C0E70025BEE700BF80C40020C8C4002034
:101C700004ED00E070B51B4D0446EB68834230D0A4
:101C800078B3FFF730FD626905F114039A4224D15D
:101C9000A36A05F1D40293421FD0F3B9261D304642
:101CA000FFF7C7FC01231420E26A296993400B4324
:101CB0002B6105F1480300FB02303146FFF796FC2B
:101CC000EB68E26ADB6A9A4207D34FF08052064B18
:101CD0001A60BFF34F8FBFF36F8FBDE87040FFF7FF
:101CE00011BD70BD80C4002004ED00E02DE9F0417D
:101CF0000646EFF311874FF0BF0383F31188BFF35C
:101D00006F8FBFF34F8F194D426905F114039A424B
:101D100029D1846A05F1D400844224D01CBBD5F8B3
:101D2000F030EBB9EB68F46ADB6A06F104089C4218
:101D3000404634BF00240124FFF77BFC012314201C
:101D4000F26A296993400B4341462B61483500FBF9
:101D50000250FFF74BFC87F311882046BDE8F08165
:101D600006F11801F5E70024F5E700BF80C4002064
:101D700037B50025104C009504F1F4030193782247
:101D80002B460E490E48FFF7A5FD012812D14FF052
:101D9000BF0383F31188BFF36F8FBFF34F8F4FF0F3
:101DA000FF336360C4F8E800A56003B0BDE83040CD
:101DB000FFF702BD03B030BD80C40020502C0008E6
:101DC000811800084FF0BF0383F31188BFF36F8FB2
:101DD000BFF34F8F0022024BC3F8E820FFF782BC0D
:101DE00080C40020034AD2F8F0300133C2F8F0304A
:101DF000704700BF80C40020014B9868704700BF47
:101E000080C40020014B9868704700BF80C4002048
:101E1000014B186C704700BF80C4002008B9024B0A
:101E2000D8683430704700BF80C400202DE9F84FD7
:101E30002F4CD4F8F030002B53D1A7680137A7609E
:101E400057B92368A26A2260A362D4F8F83001333C
:101E5000C4F8F830FFF7CEFC63680025BB4210D908
:101E60001422E368DB6A02FB03439B6C022B28BF4E
:101E70000125D4F80031002B0CBF28460120BDE815
:101E8000F88F4FF0010B4FF0140ADFF868902368C9
:101E90001B681BB94FF0FF336360E1E72368DB6821
:101EA000DE6873689F42F7D306F104084046FFF7E7
:101EB000C0FBB36A1BB106F11800FFF7BAFBF06A6A
:101EC00022690BFA00F3134341460AFB0090236199
:101ED000FFF78CFBE368F26ADB6A9A4228BF0125B0
:101EE000D5E7D4F8FC3000250133C4F8FC30C0E756
:101EF00080C40020C8C400202DE9F8432C4CFFF713
:101F0000F2FBD4F8F030013BC4F8F030D4F8F050D4
:101F10002DB10024FFF7F6FB2046BDE8F883236CC3
:101F2000002BF6D0012604F148074FF014081DE0FD
:101F3000D4F8E030DD6805F1040905F11800FFF779
:101F400078FB4846FFF775FBE86A226906FA00F35A
:101F50001343494608FB00702361FFF747FBE36822
:101F6000EA6ADB6A9A4201D3C4F80061D4F8D4303B
:101F7000002BDDD10DB1FFF73DFCD4F8FC504DB185
:101F80000126FFF753FF08B1C4F80061013DF8D105
:101F9000C4F8FC50D4F80031002BBAD04FF0805276
:101FA000044B1A60BFF34F8FBFF36F8F0124B1E76B
:101FB00080C4002004ED00E010B5FFF713FF0F4BC5
:101FC00004689A6863182CBF0121002194420360C1
:101FD0000CD961B9FFF790FF38B94FF08052084B28
:101FE0001A60BFF34F8FBFF36F8F10BD09B99A42CC
:101FF000F0D20021981AFFF70DFCEBE780C4002017
:1020000004ED00E008B540B94FF08052084B1A606B
:10201000BFF34F8FBFF36F8F08BDFFF7E3FE0021C3
:10202000FFF7F8FBFFF768FF0028EDD0F4E700BFEB
:1020300004ED00E0124B30B5D3F8F0101A4619B198
:102040000122C3F8002130BDC3F800111B69B3FAA7
:1020500083F31420DBB2C3F11F0300FB03F1541818
:102060002146E56C50316D6800FB03238D4208BFAB
:102070006968E56408BFE164DB6CDB68D360E2E7B4
:1020800080C4002070B50546254CFFF72CFB05B930
:10209000E5682E1D3046FFF7CCFA58B91421E86ADE
:1020A00001FB00418B6C2BB901222369824023EA9A
:1020B00002032361AB6A1BB105F11800FFF7B9FAFF
:1020C00031461848FFF792FA95F85830012B04BFB3
:1020D000002385F85830FFF715FBD4F8E8302BB112
:1020E000FFF701FBFFF786FBFFF70CFBE368AB4252
:1020F0000AD1D4F8E83043B14FF080520A4B1A604D
:10210000BFF34F8FBFF36F8F70BD6169226C914237
:1021100001D1E360F8E7BDE87040FFF78BBF00BF77
:1021200080C4002094C4002004ED00E010B50C46EB
:10213000054BD9681831FFF765FA2046BDE8104015
:102140000121FFF767BB00BF80C4002010B5144613
:10215000074B41F00041DA689161D9681831FFF707
:1021600045FA2046BDE810400121FFF753BB00BFF0
:1021700080C40020C36870B5DD68144C05F11806F2
:102180003046FFF756FAD4F8F030DBB92E1D304652
:10219000FFF74FFA01231420EA6A216993400B43A9
:1021A0003146236104F1480300FB0230FFF71EFAB9
:1021B000E368EA6ADB6A9A428ABF01200020C4F819
:1021C000000170BD314604F1D400EFE780C4002067
:1021D000F8B5C56841F00041012601602F1DFFF7E9
:1021E00028FA3846FFF725FA14200B4CEA6A2169D1
:1021F00006FA02F30B43236104F1480300FB0230AB
:102200003946FFF7F3F9E368EA6ADB6A9A4288BF66
:10221000C4F80061F8BD00BF80C4002010B50446BA
:10222000FFF761FA044BD3F8F8209B6822606360E3
:10223000BDE81040FFF766BA80C40020034BD3F816
:10224000F8209B6802604360704700BF80C4002094
:1022500070B50C460546FFF746FA23680E48591C30
:1022600082680FD0D0F8F8002E686968864201D0E5
:1022700091420ED9521A934209D99B1A23602846DB
:10228000FFF7DCFF0024FFF73DFA204670BD002376
:1022900023600124F7E700BF80C400200122024B25
:1022A000C3F80021704700BF80C4002000B1806CDB
:1022B000704700B18164704770B50C4616460546FC
:1022C00008B91B4AD56805F134026260EA6A052B39
:1022D00022612A6B2560E2616A6CA260EA6C62612D
:1022E0004FF00002A2611BD01149C968A9420BD16D
:1022F0002273D6B1296B0A46531A12F8010BA5288E
:10230000FAD09B08238470BD032B2373F1D1FFF710
:1023100069FDAB6A0BB102232373FFF7EDFDE8E71C
:102320002846FFF7F1FB2073E3E72684EBE700BFC5
:1023300080C400202DE9F84F0D6881460C46924676
:102340001DB300254FF0240B4B6801F108075B68B3
:10235000BB424B6004BFCB684B604B68D3F80C802A
:1023600063680BFB05915B6801229F42636008BFB5
:10237000E36805F1010508BF63606368DE685346E2
:102380003046FFF799FFB045EAD12846BDE8F88FFF
:102390002DE9F04707461646FFF724FD1E4D2B6C2E
:1023A0008B4237D84FF000094FF024084C4605F116
:1023B000980A0AEB090108FB04700122FFF7BAFF33
:1023C000A9F1140919F1640F0444F2D12968022219
:1023D00008FB0470FFF7AEFF0444A96A022208FB61
:1023E0000470FFF7A7FF044404220C4908FB0470A3
:1023F000FFF7A0FF044408FB047003220849FFF71D
:1024000099FF04440EB100233360FFF775FD2046A9
:10241000BDE8F0870024F8E780C40020ACC40020A9
:1024200094C40020014BD868704700BF80C40020CE
:102430002DE9F0410446002836D0234AC36AD1680A
:102440001546C96A8B4237D2142782691F4E002A6B
:10245000A8BFEA6807FB0363A2BFD26AC2F1050204
:10246000826142699A4221D100F104084046FFF797
:10247000E0F850B9E16A07FB0157BB6C2BB90122A8
:102480002B698A4023EA02032B61EB681420DB6A84
:102490002969E362012404FA03F20A4300FB0360A2
:1024A00041462A61FFF7A2F8204603E0EB68DB6AA9
:1024B000C3620120BDE8F081D368C06CDC6AA04231
:1024C0002CBF00200120F5E780C40020C8C40020F4
:1024D00070B5044608B9002070BD036DC16AC26CB6
:1024E000013B91420365F6D0002BF4D1051D28462F
:1024F000FFF79FF8104B58B91421E66A01FB06312B
:102500008A6C2AB901201A69B04022EA00021A61D5
:10251000E26CC2F10501A161E2620124196904FAC9
:1025200002F0084318611420044B294600FB0230D6
:10253000FFF75CF82046CFE780C40020C8C4002025
:102540002DE9F0410446002837D0C36C994238BFCA
:102550001946C36A8B4230D0026D012A2DD114274F
:10256000174D826905F1480607FB0363002A42699B
:10257000C162A4BFC1F1050181619A421DD100F180
:1025800004084046FFF755F8E26A48B907FB0257CE
:10259000BB6C2BB901212B69914023EA01032B610C
:1025A00001231420296993400B432B61414600FB12
:1025B0000260BDE8F041FFF719B8BDE8F08100BF47
:1025C00080C40020044BDA68D9689069DA68CB6A65
:1025D000C3F105039361704780C40020044BDA689F
:1025E0001AB1D9680A6D01320A65D868704700BF10
:1025F00080C4002070B5164C06460D46FFF773F8F0
:10260000E3685B6D7BB90121E36883F8581055B12D
:102610002846FFF7FFF84FF080520E4B1A60BFF3C9
:102620004F8FBFF36F8FFFF76DF8FFF75CF8E3682C
:102630005D6D1DB1E3684EB100225A650022E3686A
:1026400083F85820FFF75EF8284670BD6A1EF4E74D
:1026500080C4002004ED00E02DE9F0411E4C1E4630
:1026600080460F461546FFF73EF8E36893F858306A
:10267000022B14D00121E3685A6D22EA08025A6540
:10268000E36883F8581056B13046FFF7C3F84FF0AF
:102690008052124B1A60BFF34F8FBFF36F8FFFF75B
:1026A00031F8FFF720F815B1E3685B6D2B60E36844
:1026B000002293F85830022B09BF01250025E3685A
:1026C000596D04BFB9435965E36883F85820FFF793
:1026D00019F82846BDE8F08180C4002004ED00E030
:1026E000F8B51D4604460F461646FEF7FCFF0DB131
:1026F000636D2B60022394F85850721EEDB284F87B
:102700005830032A0AD8DFE802F002060410616D8F
:102710000F43676502E0636D01336365012D08D0E7
:102720000125FEF7EFFF2846F8BD022DF1D1002567
:10273000F7E7271D3846FEF77CFF14200D4EE26AAE
:10274000316905FA02F30B43336106F1480300FBDC
:1027500002303946FEF74AFFF368E26ADB6A9A42C2
:10276000DED94FF08052044B1A60BFF34F8FBFF396
:102770006F8FD6E780C4002004ED00E02DE9F84318
:10278000089F0446EFF311884FF0BF0080F31188D3
:10279000BFF36F8FBFF34F8F0BB1606D18600223D3
:1027A00094F85860013AF6B284F85830032A0AD8EF
:1027B000DFE802F002060410636D1943616502E070
:1027C000636D01336365012E08D0012088F3118801
:1027D000BDE8F883022EF1D10020F7E7124DD5F8BD
:1027E000F030E3B904F104094846FEF722FF142053
:1027F0004946E36A2A699E40164305F1480200FBF8
:1028000003202E61FEF7F2FEEB68E26ADB6A9A4271
:10281000DBD9012307B13B60C5F80031D5E704F1EE
:10282000180105F1D400EDE780C400202DE9F8433C
:1028300005460F46EFF311884FF0BF0383F311886D
:10284000BFF36F8FBFF34F8F022390F8586080F86B
:102850005830436DF6B20133012E43651FD1144C3D
:10286000D4F8F030FBB900F104094846FEF7E1FE68
:1028700014204946EB6A22699E40164304F148023F
:1028800000FB03202661FEF7B1FEE368EA6ADB6A1B
:102890009A4204D9012307B13B60C4F8003188F3A0
:1028A0001188BDE8F88300F1180104F1D400EAE7CB
:1028B00080C4002038B5054608B9084BDD680024FF
:1028C000FEF711FF95F85830022B04BF85F85840E9
:1028D0000124FEF717FF204638BD00BF80C400204A
:1028E00008B50C4C20460121FDF776FD0421204659
:1028F000FDF774FDC820FFF785FB20460121FDF799
:102900006DFD20460421FDF767FDC820FFF77AFB27
:10291000E8E700BF001801404CF25033144970B58D
:102920000B80002640F2E733124C8B8020464E800D
:10293000FEF7B6F820460121FEF724FA60230E497F
:1029400001250B8032232046CB804D80FEF7F2F824
:102950002A4631462046FEF7AFFB20462A46042190
:10296000FEF7AAFB29462046BDE87040FEF715BADF
:10297000BAC50020002C0140A6C5002070B50D4E40
:102980000D4D761BB61006D00024013455F8043BDB
:102990009847A642F9D1094E094D00F04BF9761B34
:1029A000B61006D00024013455F8043B9847A642DF
:1029B000F9D170BD602C0008602C0008682C00085C
:1029C000602C0008F0B4860743D0541E002A3ED085
:1029D000CAB2034602E014F1FF3438D303F8012BE6
:1029E0009D07F8D1032C2BD9CDB245EA05250F2C34
:1029F00045EA054516D9A4F110073F0903F1200661
:102A000006EB071603F1100242E9045542E90255AC
:102A10001032B242F8D104F00F040137032C03EB5B
:102A200007130DD91E462246043A032A46F8045BD2
:102A3000FAD8221F22F003020432134404F00304E4
:102A40002CB1C9B21C4403F8011B9C42FBD1F0BC61
:102A5000704714460346C5E7024B13B1024800F025
:102A600005B8704700000000792A000800230146DD
:102A70001A46184600F01EB838B50A4C0A4D641BB9
:102A8000A4100AD004F18043013B05EB8305013C0F
:102A900055F804399847002CF9D1BDE8384000F0CA
:102AA000CFB800BF6C2C0008682C0008704700BF2E
:102AB000704700BF2DE9F8432B4D0646286898461D
:102AC0000F469146FFF7F2FF284B1C68D4F84831B7
:102AD000002B3DD05A681F2A0DDC02F1010C16BBF9
:102AE0000232C3F804C0286843F82270FFF7E0FF01
:102AF0000020BDE8F8831E4B7BB34FF4C870AFF3E2
:102B00000080034648B30020D4F848114FF0010C70
:102B1000C3E900100246C4F84831C3F88801C3F87D
:102B20008C01002EDCD0012103EB8204C4F88890D4
:102B3000D3F8880191400843022EC3F88801C4F8F5
:102B40000881CDD1D3F88C010143C3F88C11C7E7BC
:102B500004F5A673C4F84831BCE72868FFF7A8FF5E
:102B60004FF0FF30C5E700BF580400204C2C000890
:102B700000000000002103E00B4B5B584350043180
:102B80000A480B4B42189A42F6D30A4A02E0002345
:102B900042F8043B084B9A42F9D3FEF741FCFFF799
:102BA000EDFE00F00DF870476C2C000800000020CE
:102BB0005C0400205C040020C4C50020FEE7000087
:102BC00073B5FEF72DFC01214020FDF78DFD01219D
:102BD0004FF40060FDF788FD102605230325104CF7
:102BE000104821462380E670A570FDF788FB4FF45E
:102BF000407321460C482380E670A570FDF77FFBEB
:102C0000FFF78AFE002301220849CDE90023084886
:102C10007822FEF75FFE02B0BDE87040FFF7A8B86B
:102C2000B6C500200018014000080140552C0008DE
:102C3000E1280008F8B500BFF8BC08BC9E46704704
:0C2C4000F8B500BFF8BC08BC9E46704709
:102C4C003000002049444C4500426C696E6B657243
:042C5C000000000074
:082C6000592A000815020008C2
:042C6800F10100086E
:102C6C000000000001020304010203040607080926
:102C7C000204060800A24A04000000000000000044
:102C8C000102030406070809AAAAAAAA0000000068
:102C9C00000000001C03002084030020EC03002033
:102CAC000000000000000000000000000000000018
:102CBC000000000000000000000000000000000008
:102CCC0000000000000000000000000000000000F8
:102CDC0000000000000000000000000000000000E8
:102CEC0000000000000000000000000000000000D8
:102CFC0000000000000000000000000000000000C8
:102D0C0000000000000000000000000000000000B7
:102D1C0000000000000000000000000000000000A7
:102D2C000000000000000000000000000000000097
:102D3C000000000000000000010000000000000086
:102D4C000E33CDAB34126DE6ECDE05000B0000004B
:102D5C000000000000000000000000000000000067
:102D6C000000000000000000000000000000000057
:102D7C000000000000000000000000000000000047
:102D8C000000000000000000000000000000000037
:0C30BC00000000000000000084C500209F
:0400000508002B754F
:00000001FF
